{
  "contractName": "AcademiaTokenSale",
  "abi": [
    {
      "constant": true,
      "inputs": [],
      "name": "tokenSold",
      "outputs": [
        {
          "name": "",
          "type": "uint256"
        }
      ],
      "payable": false,
      "stateMutability": "view",
      "type": "function"
    },
    {
      "constant": true,
      "inputs": [],
      "name": "freeTokens",
      "outputs": [
        {
          "name": "",
          "type": "uint256"
        }
      ],
      "payable": false,
      "stateMutability": "view",
      "type": "function"
    },
    {
      "constant": true,
      "inputs": [],
      "name": "tokenPrice",
      "outputs": [
        {
          "name": "",
          "type": "uint256"
        }
      ],
      "payable": false,
      "stateMutability": "view",
      "type": "function"
    },
    {
      "constant": true,
      "inputs": [
        {
          "name": "",
          "type": "address"
        }
      ],
      "name": "freeUsers",
      "outputs": [
        {
          "name": "",
          "type": "bool"
        }
      ],
      "payable": false,
      "stateMutability": "view",
      "type": "function"
    },
    {
      "inputs": [
        {
          "name": "_tokenAddress",
          "type": "address"
        },
        {
          "name": "_tokenPrice",
          "type": "uint256"
        }
      ],
      "payable": false,
      "stateMutability": "nonpayable",
      "type": "constructor"
    },
    {
      "anonymous": false,
      "inputs": [
        {
          "indexed": false,
          "name": "buyer",
          "type": "address"
        },
        {
          "indexed": false,
          "name": "amount",
          "type": "uint256"
        }
      ],
      "name": "Sell",
      "type": "event"
    },
    {
      "anonymous": false,
      "inputs": [
        {
          "indexed": false,
          "name": "sender",
          "type": "address"
        }
      ],
      "name": "Give",
      "type": "event"
    },
    {
      "anonymous": false,
      "inputs": [
        {
          "indexed": false,
          "name": "admin",
          "type": "address"
        },
        {
          "indexed": false,
          "name": "newAddress",
          "type": "address"
        }
      ],
      "name": "UpdateAddress",
      "type": "event"
    },
    {
      "anonymous": false,
      "inputs": [
        {
          "indexed": false,
          "name": "admin",
          "type": "address"
        },
        {
          "indexed": false,
          "name": "newAdmin",
          "type": "address"
        }
      ],
      "name": "AdminChanged",
      "type": "event"
    },
    {
      "constant": false,
      "inputs": [
        {
          "name": "_tokenAddress",
          "type": "address"
        }
      ],
      "name": "setAcademiaTokenContractAddress",
      "outputs": [],
      "payable": false,
      "stateMutability": "nonpayable",
      "type": "function"
    },
    {
      "constant": false,
      "inputs": [
        {
          "name": "_newAdmin",
          "type": "address"
        }
      ],
      "name": "transferAdminRight",
      "outputs": [],
      "payable": false,
      "stateMutability": "nonpayable",
      "type": "function"
    },
    {
      "constant": false,
      "inputs": [
        {
          "name": "_nbrOfTokens",
          "type": "uint256"
        }
      ],
      "name": "buyToken",
      "outputs": [
        {
          "name": "",
          "type": "bool"
        }
      ],
      "payable": true,
      "stateMutability": "payable",
      "type": "function"
    },
    {
      "constant": false,
      "inputs": [],
      "name": "getFreeToken",
      "outputs": [],
      "payable": false,
      "stateMutability": "nonpayable",
      "type": "function"
    }
  ],
  "bytecode": "0x608060405234801561001057600080fd5b50604051604080610c5483398101806040528101908080519060200190929190805190602001909291905050508060018190555033600460006101000a81548173ffffffffffffffffffffffffffffffffffffffff021916908373ffffffffffffffffffffffffffffffffffffffff160217905550816000806101000a81548173ffffffffffffffffffffffffffffffffffffffff021916908373ffffffffffffffffffffffffffffffffffffffff16021790555060646003819055505050610b76806100de6000396000f30060806040526004361061008e576000357c0100000000000000000000000000000000000000000000000000000000900463ffffffff16806325ded32e146100935780632d296bf1146100d6578063519ee19e1461010e5780636fe8f9c5146101395780637ff9b596146101645780639a954af91461018f5780639cb8d6dc146101a6578063b7353de6146101e9575b600080fd5b34801561009f57600080fd5b506100d4600480360381019080803573ffffffffffffffffffffffffffffffffffffffff169060200190929190505050610244565b005b6100f46004803603810190808035906020019092919050505061037a565b604051808215151515815260200191505060405180910390f35b34801561011a57600080fd5b5061012361063c565b6040518082815260200191505060405180910390f35b34801561014557600080fd5b5061014e610642565b6040518082815260200191505060405180910390f35b34801561017057600080fd5b50610179610648565b6040518082815260200191505060405180910390f35b34801561019b57600080fd5b506101a461064e565b005b3480156101b257600080fd5b506101e7600480360381019080803573ffffffffffffffffffffffffffffffffffffffff16906020019092919050505061093c565b005b3480156101f557600080fd5b5061022a600480360381019080803573ffffffffffffffffffffffffffffffffffffffff169060200190929190505050610ad1565b604051808215151515815260200191505060405180910390f35b600460009054906101000a900473ffffffffffffffffffffffffffffffffffffffff1673ffffffffffffffffffffffffffffffffffffffff163373ffffffffffffffffffffffffffffffffffffffff161415156102a057600080fd5b806000806101000a81548173ffffffffffffffffffffffffffffffffffffffff021916908373ffffffffffffffffffffffffffffffffffffffff1602179055507fd81bb5ee4f77d798469ff246f77b10775c605f68a46984c3bf126af0623910333382604051808373ffffffffffffffffffffffffffffffffffffffff1673ffffffffffffffffffffffffffffffffffffffff1681526020018273ffffffffffffffffffffffffffffffffffffffff1673ffffffffffffffffffffffffffffffffffffffff1681526020019250505060405180910390a150565b600061039160015483610af190919063ffffffff16565b3414151561039e57600080fd5b816000809054906101000a900473ffffffffffffffffffffffffffffffffffffffff1673ffffffffffffffffffffffffffffffffffffffff166370a08231306040518263ffffffff167c0100000000000000000000000000000000000000000000000000000000028152600401808273ffffffffffffffffffffffffffffffffffffffff1673ffffffffffffffffffffffffffffffffffffffff168152602001915050602060405180830381600087803b15801561045b57600080fd5b505af115801561046f573d6000803e3d6000fd5b505050506040513d602081101561048557600080fd5b8101908080519060200190929190505050101515156104a357600080fd5b6000809054906101000a900473ffffffffffffffffffffffffffffffffffffffff1673ffffffffffffffffffffffffffffffffffffffff1663a9059cbb33846040518363ffffffff167c0100000000000000000000000000000000000000000000000000000000028152600401808373ffffffffffffffffffffffffffffffffffffffff1673ffffffffffffffffffffffffffffffffffffffff16815260200182815260200192505050602060405180830381600087803b15801561056757600080fd5b505af115801561057b573d6000803e3d6000fd5b505050506040513d602081101561059157600080fd5b810190808051906020019092919050505015156105ad57600080fd5b6105c282600254610b2c90919063ffffffff16565b6002819055507f5e5e995ce3133561afceaa51a9a154d5db228cd7525d34df5185582c18d3df093383604051808373ffffffffffffffffffffffffffffffffffffffff1673ffffffffffffffffffffffffffffffffffffffff1681526020018281526020019250505060405180910390a160019050919050565b60025481565b60035481565b60015481565b600560003373ffffffffffffffffffffffffffffffffffffffff1673ffffffffffffffffffffffffffffffffffffffff16815260200190815260200160002060009054906101000a900460ff161515156106a757600080fd5b6003546000809054906101000a900473ffffffffffffffffffffffffffffffffffffffff1673ffffffffffffffffffffffffffffffffffffffff166370a08231306040518263ffffffff167c0100000000000000000000000000000000000000000000000000000000028152600401808273ffffffffffffffffffffffffffffffffffffffff1673ffffffffffffffffffffffffffffffffffffffff168152602001915050602060405180830381600087803b15801561076657600080fd5b505af115801561077a573d6000803e3d6000fd5b505050506040513d602081101561079057600080fd5b8101908080519060200190929190505050101515156107ae57600080fd5b6000809054906101000a900473ffffffffffffffffffffffffffffffffffffffff1673ffffffffffffffffffffffffffffffffffffffff1663a9059cbb336003546040518363ffffffff167c0100000000000000000000000000000000000000000000000000000000028152600401808373ffffffffffffffffffffffffffffffffffffffff1673ffffffffffffffffffffffffffffffffffffffff16815260200182815260200192505050602060405180830381600087803b15801561087457600080fd5b505af1158015610888573d6000803e3d6000fd5b505050506040513d602081101561089e57600080fd5b810190808051906020019092919050505015156108ba57600080fd5b6108d1600354600254610b2c90919063ffffffff16565b6002819055507fde69fe447cea8e8552c741a91358ce0618699bc8af4cddd6a69971f651ef91b133604051808273ffffffffffffffffffffffffffffffffffffffff1673ffffffffffffffffffffffffffffffffffffffff16815260200191505060405180910390a1565b600460009054906101000a900473ffffffffffffffffffffffffffffffffffffffff1673ffffffffffffffffffffffffffffffffffffffff163373ffffffffffffffffffffffffffffffffffffffff1614151561099857600080fd5b600073ffffffffffffffffffffffffffffffffffffffff168173ffffffffffffffffffffffffffffffffffffffff16141515156109d457600080fd5b7f7e644d79422f17c01e4894b5f4f588d331ebfa28653d42ae832dc59e38c9798f600460009054906101000a900473ffffffffffffffffffffffffffffffffffffffff1682604051808373ffffffffffffffffffffffffffffffffffffffff1673ffffffffffffffffffffffffffffffffffffffff1681526020018273ffffffffffffffffffffffffffffffffffffffff1673ffffffffffffffffffffffffffffffffffffffff1681526020019250505060405180910390a180600460006101000a81548173ffffffffffffffffffffffffffffffffffffffff021916908373ffffffffffffffffffffffffffffffffffffffff16021790555050565b60056020528060005260406000206000915054906101000a900460ff1681565b6000806000841415610b065760009150610b25565b8284029050828482811515610b1757fe5b04141515610b2157fe5b8091505b5092915050565b6000808284019050838110151515610b4057fe5b80915050929150505600a165627a7a72305820f08eabb4e49a86da00b8e684eeffe6ea38123c4b939e87745dea21eb99f74a950029",
  "source": "pragma solidity ^0.4.2;\r\n\r\nimport \"./SafeMath.sol\";\r\n\r\ncontract AcademiaTokenInterface {\r\n    function balanceOf(address _admin) public returns(uint);\r\n    function transfer(address _to, uint _value) public returns (bool success);\r\n}\r\n\r\ncontract AcademiaTokenSale {\r\n\r\n    using SafeMath for uint256;\r\n\r\n    AcademiaTokenInterface academiaTokenContract;\r\n    uint public tokenPrice;\r\n    uint public tokenSold;\r\n    uint public freeTokens;\r\n    address private admin;\r\n    \r\n    mapping (address => bool) public freeUsers;\r\n\r\n    event Sell(\r\n        address buyer,\r\n        uint amount\r\n    );\r\n\r\n    event Give(\r\n        address sender\r\n    );\r\n\r\n    event UpdateAddress(\r\n        address admin,\r\n        address newAddress\r\n    );\r\n\r\n    event AdminChanged(\r\n        address admin,\r\n        address newAdmin\r\n    );\r\n\r\n    modifier onlyAdmin() {\r\n        require(msg.sender == admin);\r\n        _;\r\n    }\r\n\r\n    constructor(address _tokenAddress, uint _tokenPrice) public {\r\n        tokenPrice = _tokenPrice;\r\n        admin = msg.sender;\r\n        academiaTokenContract = AcademiaTokenInterface(_tokenAddress);\r\n        freeTokens = 100;\r\n    }\r\n\r\n    function setAcademiaTokenContractAddress(address _tokenAddress) external onlyAdmin {\r\n        academiaTokenContract = AcademiaTokenInterface(_tokenAddress);\r\n        emit UpdateAddress(msg.sender, _tokenAddress);\r\n    }\r\n\r\n    function transferAdminRight(address _newAdmin) external onlyAdmin {\r\n        require(_newAdmin != address(0));\r\n        emit AdminChanged(admin, _newAdmin);\r\n        admin = _newAdmin;\r\n    }\r\n\r\n    function buyToken(uint _nbrOfTokens) public payable returns(bool) {\r\n        require(msg.value == _nbrOfTokens.mul(tokenPrice));\r\n        require(academiaTokenContract.balanceOf(this) >= _nbrOfTokens);\r\n        require(academiaTokenContract.transfer(msg.sender, _nbrOfTokens));\r\n        tokenSold = tokenSold.add(_nbrOfTokens);\r\n        emit Sell(msg.sender, _nbrOfTokens);\r\n        return true;\r\n    }\r\n\r\n    function getFreeToken() public {\r\n        require(!freeUsers[msg.sender]);\r\n        require(academiaTokenContract.balanceOf(this) >= freeTokens);\r\n        require(academiaTokenContract.transfer(msg.sender, freeTokens));\r\n        tokenSold = tokenSold.add(freeTokens);\r\n        emit Give(msg.sender);\r\n    }\r\n}",
  "sourcePath": "C:\\Users\\bzegre\\Documents\\Projects\\Perso\\AcademiaToken\\contracts\\AcademiaTokenSale.sol",
  "compiler": {
    "name": "solc",
    "version": "0.4.24+commit.e67f0147.Emscripten.clang"
  },
  "schemaVersion": "2.0.0",
  "updatedAt": "2018-05-30T15:05:34.183Z"
}