{
  "contractName": "AcademiaToken",
  "abi": [
    {
      "constant": true,
      "inputs": [],
      "name": "name",
      "outputs": [
        {
          "name": "",
          "type": "string"
        }
      ],
      "payable": false,
      "stateMutability": "view",
      "type": "function"
    },
    {
      "constant": true,
      "inputs": [],
      "name": "totalSupply",
      "outputs": [
        {
          "name": "",
          "type": "uint256"
        }
      ],
      "payable": false,
      "stateMutability": "view",
      "type": "function"
    },
    {
      "constant": true,
      "inputs": [],
      "name": "symbol",
      "outputs": [
        {
          "name": "",
          "type": "string"
        }
      ],
      "payable": false,
      "stateMutability": "view",
      "type": "function"
    },
    {
      "inputs": [
        {
          "name": "_totalSupply",
          "type": "uint256"
        }
      ],
      "payable": false,
      "stateMutability": "nonpayable",
      "type": "constructor"
    }
  ],
  "bytecode": "0x60806040526040805190810160405280600e81526020017f41636164656d696120546f6b656e0000000000000000000000000000000000008152506000908051906020019061004f9291906100d8565b506040805190810160405280600381526020017f41435400000000000000000000000000000000000000000000000000000000008152506001908051906020019061009b9291906100d8565b503480156100a857600080fd5b506040516020806104a183398101806040528101908080519060200190929190505050806002819055505061017d565b828054600181600116156101000203166002900490600052602060002090601f016020900481019282601f1061011957805160ff1916838001178555610147565b82800160010185558215610147579182015b8281111561014657825182559160200191906001019061012b565b5b5090506101549190610158565b5090565b61017a91905b8082111561017657600081600090555060010161015e565b5090565b90565b6103158061018c6000396000f300608060405260043610610057576000357c0100000000000000000000000000000000000000000000000000000000900463ffffffff16806306fdde031461005c57806318160ddd146100ec57806395d89b4114610117575b600080fd5b34801561006857600080fd5b506100716101a7565b6040518080602001828103825283818151815260200191508051906020019080838360005b838110156100b1578082015181840152602081019050610096565b50505050905090810190601f1680156100de5780820380516001836020036101000a031916815260200191505b509250505060405180910390f35b3480156100f857600080fd5b50610101610245565b6040518082815260200191505060405180910390f35b34801561012357600080fd5b5061012c61024b565b6040518080602001828103825283818151815260200191508051906020019080838360005b8381101561016c578082015181840152602081019050610151565b50505050905090810190601f1680156101995780820380516001836020036101000a031916815260200191505b509250505060405180910390f35b60008054600181600116156101000203166002900480601f01602080910402602001604051908101604052809291908181526020018280546001816001161561010002031660029004801561023d5780601f106102125761010080835404028352916020019161023d565b820191906000526020600020905b81548152906001019060200180831161022057829003601f168201915b505050505081565b60025481565b60018054600181600116156101000203166002900480601f0160208091040260200160405190810160405280929190818152602001828054600181600116156101000203166002900480156102e15780601f106102b6576101008083540402835291602001916102e1565b820191906000526020600020905b8154815290600101906020018083116102c457829003601f168201915b5050505050815600a165627a7a72305820fa3255fe0ff0ca7d31e417594763a427998657ef1449860467d7877c858c96aa0029",
  "source": "pragma solidity ^0.4.20;\r\n\r\ncontract AcademiaToken {\r\n    \r\n    string public name = \"Academia Token\";\r\n    string public symbol = \"ACT\";\r\n    uint public totalSupply;\r\n\r\n    constructor (uint _totalSupply) public {\r\n        totalSupply = _totalSupply;        \r\n    }\r\n}",
  "sourcePath": "C:\\Users\\bzegre\\Documents\\Projects\\Perso\\AcademiaToken\\contracts\\AcademiaToken.sol",
  "compiler": {
    "name": "solc",
    "version": "0.4.24+commit.e67f0147.Emscripten.clang"
  },
  "schemaVersion": "2.0.0",
  "updatedAt": "2018-05-24T10:42:15.439Z"
}