{
  "contractName": "AcademiaTokenSale",
  "abi": [
    {
      "constant": true,
      "inputs": [],
      "name": "tokenSold",
      "outputs": [
        {
          "name": "",
          "type": "uint256"
        }
      ],
      "payable": false,
      "stateMutability": "view",
      "type": "function"
    },
    {
      "constant": true,
      "inputs": [],
      "name": "tokenPrice",
      "outputs": [
        {
          "name": "",
          "type": "uint256"
        }
      ],
      "payable": false,
      "stateMutability": "view",
      "type": "function"
    },
    {
      "inputs": [
        {
          "name": "_tokenAddress",
          "type": "address"
        },
        {
          "name": "_tokenPrice",
          "type": "uint256"
        }
      ],
      "payable": false,
      "stateMutability": "nonpayable",
      "type": "constructor"
    },
    {
      "anonymous": false,
      "inputs": [
        {
          "indexed": false,
          "name": "buyer",
          "type": "address"
        },
        {
          "indexed": false,
          "name": "amount",
          "type": "uint256"
        }
      ],
      "name": "Sell",
      "type": "event"
    },
    {
      "anonymous": false,
      "inputs": [
        {
          "indexed": false,
          "name": "admin",
          "type": "address"
        },
        {
          "indexed": false,
          "name": "newAddress",
          "type": "address"
        }
      ],
      "name": "UpdateAddress",
      "type": "event"
    },
    {
      "anonymous": false,
      "inputs": [
        {
          "indexed": false,
          "name": "admin",
          "type": "address"
        },
        {
          "indexed": false,
          "name": "newAdmin",
          "type": "address"
        }
      ],
      "name": "AdminChanged",
      "type": "event"
    },
    {
      "constant": false,
      "inputs": [
        {
          "name": "_tokenAddress",
          "type": "address"
        }
      ],
      "name": "setAcademiaTokenContractAddress",
      "outputs": [],
      "payable": false,
      "stateMutability": "nonpayable",
      "type": "function"
    },
    {
      "constant": false,
      "inputs": [
        {
          "name": "_newAdmin",
          "type": "address"
        }
      ],
      "name": "transferAdminRight",
      "outputs": [],
      "payable": false,
      "stateMutability": "nonpayable",
      "type": "function"
    },
    {
      "constant": false,
      "inputs": [
        {
          "name": "_nbrOfTokens",
          "type": "uint256"
        }
      ],
      "name": "buyToken",
      "outputs": [],
      "payable": true,
      "stateMutability": "payable",
      "type": "function"
    }
  ],
  "bytecode": "0x608060405234801561001057600080fd5b5060405160408061085a83398101806040528101908080519060200190929190805190602001909291905050508060018190555033600360006101000a81548173ffffffffffffffffffffffffffffffffffffffff021916908373ffffffffffffffffffffffffffffffffffffffff160217905550816000806101000a81548173ffffffffffffffffffffffffffffffffffffffff021916908373ffffffffffffffffffffffffffffffffffffffff1602179055505050610784806100d66000396000f30060806040526004361061006d576000357c0100000000000000000000000000000000000000000000000000000000900463ffffffff16806325ded32e146100725780632d296bf1146100b5578063519ee19e146100d55780637ff9b596146101005780639cb8d6dc1461012b575b600080fd5b34801561007e57600080fd5b506100b3600480360381019080803573ffffffffffffffffffffffffffffffffffffffff16906020019092919050505061016e565b005b6100d3600480360381019080803590602001909291905050506102a4565b005b3480156100e157600080fd5b506100ea61055e565b6040518082815260200191505060405180910390f35b34801561010c57600080fd5b50610115610564565b6040518082815260200191505060405180910390f35b34801561013757600080fd5b5061016c600480360381019080803573ffffffffffffffffffffffffffffffffffffffff16906020019092919050505061056a565b005b600360009054906101000a900473ffffffffffffffffffffffffffffffffffffffff1673ffffffffffffffffffffffffffffffffffffffff163373ffffffffffffffffffffffffffffffffffffffff161415156101ca57600080fd5b806000806101000a81548173ffffffffffffffffffffffffffffffffffffffff021916908373ffffffffffffffffffffffffffffffffffffffff1602179055507fd81bb5ee4f77d798469ff246f77b10775c605f68a46984c3bf126af0623910333382604051808373ffffffffffffffffffffffffffffffffffffffff1673ffffffffffffffffffffffffffffffffffffffff1681526020018273ffffffffffffffffffffffffffffffffffffffff1673ffffffffffffffffffffffffffffffffffffffff1681526020019250505060405180910390a150565b6102b9600154826106ff90919063ffffffff16565b341415156102c657600080fd5b806000809054906101000a900473ffffffffffffffffffffffffffffffffffffffff1673ffffffffffffffffffffffffffffffffffffffff166370a08231306040518263ffffffff167c0100000000000000000000000000000000000000000000000000000000028152600401808273ffffffffffffffffffffffffffffffffffffffff1673ffffffffffffffffffffffffffffffffffffffff168152602001915050602060405180830381600087803b15801561038357600080fd5b505af1158015610397573d6000803e3d6000fd5b505050506040513d60208110156103ad57600080fd5b8101908080519060200190929190505050101515156103cb57600080fd5b6000809054906101000a900473ffffffffffffffffffffffffffffffffffffffff1673ffffffffffffffffffffffffffffffffffffffff1663a9059cbb33836040518363ffffffff167c0100000000000000000000000000000000000000000000000000000000028152600401808373ffffffffffffffffffffffffffffffffffffffff1673ffffffffffffffffffffffffffffffffffffffff16815260200182815260200192505050602060405180830381600087803b15801561048f57600080fd5b505af11580156104a3573d6000803e3d6000fd5b505050506040513d60208110156104b957600080fd5b810190808051906020019092919050505015156104d557600080fd5b6104ea8160025461073a90919063ffffffff16565b6002819055507f5e5e995ce3133561afceaa51a9a154d5db228cd7525d34df5185582c18d3df093382604051808373ffffffffffffffffffffffffffffffffffffffff1673ffffffffffffffffffffffffffffffffffffffff1681526020018281526020019250505060405180910390a150565b60025481565b60015481565b600360009054906101000a900473ffffffffffffffffffffffffffffffffffffffff1673ffffffffffffffffffffffffffffffffffffffff163373ffffffffffffffffffffffffffffffffffffffff161415156105c657600080fd5b600073ffffffffffffffffffffffffffffffffffffffff168173ffffffffffffffffffffffffffffffffffffffff161415151561060257600080fd5b7f7e644d79422f17c01e4894b5f4f588d331ebfa28653d42ae832dc59e38c9798f600360009054906101000a900473ffffffffffffffffffffffffffffffffffffffff1682604051808373ffffffffffffffffffffffffffffffffffffffff1673ffffffffffffffffffffffffffffffffffffffff1681526020018273ffffffffffffffffffffffffffffffffffffffff1673ffffffffffffffffffffffffffffffffffffffff1681526020019250505060405180910390a180600360006101000a81548173ffffffffffffffffffffffffffffffffffffffff021916908373ffffffffffffffffffffffffffffffffffffffff16021790555050565b60008060008414156107145760009150610733565b828402905082848281151561072557fe5b0414151561072f57fe5b8091505b5092915050565b600080828401905083811015151561074e57fe5b80915050929150505600a165627a7a72305820099c2db0122b6ee6d378b2c95d4c9e9d6c93cc8a6d3e7d21f59c27c6ce64c87f0029",
  "source": "pragma solidity ^0.4.2;\r\n\r\nimport \"./SafeMath.sol\";\r\n\r\ncontract AcademiaTokenInterface {\r\n    function balanceOf(address _admin) public returns(uint);\r\n    function transfer(address _to, uint _value) public returns (bool success);\r\n}\r\n\r\ncontract AcademiaTokenSale {\r\n\r\n    using SafeMath for uint256;\r\n\r\n    AcademiaTokenInterface academiaTokenContract;\r\n    uint public tokenPrice;\r\n    uint public tokenSold;\r\n    address private admin;\r\n\r\n    event Sell(\r\n        address buyer,\r\n        uint amount\r\n    );\r\n\r\n    event UpdateAddress(\r\n        address admin,\r\n        address newAddress\r\n    );\r\n\r\n    event AdminChanged(\r\n        address admin,\r\n        address newAdmin\r\n    );\r\n\r\n    modifier onlyAdmin() {\r\n        require(msg.sender == admin);\r\n        _;\r\n    }\r\n\r\n    constructor(address _tokenAddress, uint _tokenPrice) public {\r\n        tokenPrice = _tokenPrice;\r\n        admin = msg.sender;\r\n        academiaTokenContract = AcademiaTokenInterface(_tokenAddress);\r\n    }\r\n\r\n    function setAcademiaTokenContractAddress(address _tokenAddress) external onlyAdmin {\r\n        academiaTokenContract = AcademiaTokenInterface(_tokenAddress);\r\n        emit UpdateAddress(msg.sender, _tokenAddress);\r\n    }\r\n\r\n    function transferAdminRight(address _newAdmin) external onlyAdmin {\r\n        require(_newAdmin != address(0));\r\n        emit AdminChanged(admin, _newAdmin);\r\n        admin = _newAdmin;\r\n    }\r\n\r\n    function buyToken(uint _nbrOfTokens) public payable {\r\n        require(msg.value == _nbrOfTokens.mul(tokenPrice));\r\n        require(academiaTokenContract.balanceOf(this) >= _nbrOfTokens);\r\n        require(academiaTokenContract.transfer(msg.sender, _nbrOfTokens));\r\n        tokenSold = tokenSold.add(_nbrOfTokens);\r\n        emit Sell(msg.sender, _nbrOfTokens);\r\n    }\r\n}",
  "sourcePath": "C:\\Users\\bzegre\\Documents\\Projects\\Perso\\AcademiaToken\\contracts\\AcademiaTokenSale.sol",
  "compiler": {
    "name": "solc",
    "version": "0.4.24+commit.e67f0147.Emscripten.clang"
  },
  "schemaVersion": "2.0.0",
  "updatedAt": "2018-05-25T10:13:44.444Z"
}